:020000041000EA
:1000000000B5324B212058609868022188439860DF
:10001000D860186158612E4B002199600221596106
:100020000121F02299502B49196001219960352056
:1000300000F044F80222904214D00621196600F024
:1000400034F8196E01211966002018661A6600F04E
:100050002CF8196E196E196E052000F02FF8012189
:100060000842F9D1002199601B49196000215960AB
:100070001A491B48016001219960EB211966A021F2
:10008000196600F012F800219960164914480160C1
:100090000121996001BC002800D000471248134993
:1000A000086003C880F30888084703B5996A0420EC
:1000B0000142FBD001200142F8D103BD02B5186610
:1000C0001866FFF7F2FF186E186E02BD00000240BE
:1000D000000000180000070000035F00212200005C
:1000E000F4000018222000A00001001008ED00E03C
:1000F00000000000000000000000000074B24E7A12
:1001000000200420F7010010C3010010C5010010F9
:10011000C1010010C1010010C1010010C101001097
:10012000C1010010C1010010C1010010C701001081
:10013000C1010010C1010010C9010010CB01001065
:10014000CD010010CD010010CD010010CD01001037
:10015000CD010010CD010010CD010010CD01001027
:10016000CD010010CD010010CD010010CD01001017
:10017000CD010010CD010010CD010010CD01001007
:10018000CD010010CD010010CD010010CD010010F7
:10019000CD010010CD010010CD010010CD010010E7
:1001A000CD010010CD010010CD010010CD010010D7
:1001B000CD010010CD010010CD010010CD010010C7
:1001C00000BE00BE00BE00BE00BE00BEEFF3058054
:1001D000103800BEF2EB887138F904105CF9041095
:1001E0003402001090A31AE700201F49086006C8D7
:1001F00081F3088810471D48006800282FD10DA4FE
:100200000ECC002902D000F012F8F9E71849194A7B
:10021000002000E001C19142FCD1174988471749ED
:1002200088471749884700BEFDE701C901C29A42C5
:10023000FBD370475CF90410C0000020000F0020C1
:10024000BC0705100000042000000420BC070510B6
:10025000001004200010042000000000704709482E
:1002600003F074FC0047000008ED00E0000000D03F
:10027000200F002004CE002051230010050800109C
:10028000792400105756000006005250ABB360535B
:100290001863011006005250861C030228630110E7
:1002A000060052505422A29D3463011005005250A2
:1002B000DE65F468BC070510F8B5C0460448054B78
:1002C00010B5834203D0044B002B00D0984710BDDB
:1002D000000F0020000F0020000000000648074922
:1002E000091A8B10C90FC91810B5491003D0044B57
:1002F000002B00D0984710BD000F0020000F0020F9
:100300000000000010B5074C2378002B09D1FFF73F
:10031000D5FF054B002B02D0044800E000BF0123AD
:10032000237010BD7010002000000000885E0110D6
:10033000054B10B5002B03D00449054800E000BF71
:10034000FFF7CCFF10BDC046000000007410002075
:10035000885E011070B5050011002448140004F0F7
:1003600043FA234BEA58944680226444EC5012012D
:1003700094420CDB1F496A5801326A50092A08DC92
:1003800000221D491D486A50EA5004F08BF90020F4
:1003900070BD1B4804F086F98123012228681B01E7
:1003A000EA540028F3D0002106F0D8FF00220021F3
:1003B000286807F001F80021286806F0E1FF002115
:1003C000286806F0CFFF0021286806F0E7FF2868BC
:1003D00007F0D2FC011E02D100232B60D7E70948A9
:1003E00004F002FA286807F03DF9F5E7885E01108D
:1003F0000C0800001408000008080000CC5E011082
:100400009C5E0110AC5E011010B504001B4804F0A6
:1004100049F901211A48494204F0E6F981230122F1
:100420001B01E25423680020002B1BD01800002180
:1004300006F094FF00220021206806F0BDFF002195
:10044000206806F09DFF0021206806F08BFF2068E1
:10045000002106F0A3FF206807F08EFC002802D1DF
:100460000023236010BD0100064804F0BDF9206898
:1004700007F0F8F80D204042F2E7C046EC5E0110AC
:10048000FC5E0110AC5E01100B0070B504000D00A5
:100490000D3300D170BD1B4804F0A6F9002D25D105
:1004A000194804F0FFF88123012220681B01E2545F
:1004B0000028EFD0002106F051FF00220021206823
:1004C00006F07AFF0021206806F05AFF002120681C
:1004D00006F048FF0021206806F060FF206807F062
:1004E0004BFC011E07D100232360D3E729000748F6
:1004F00004F07AF9D7E7064804F076F9206807F0A7
:10050000B1F8F0E70C5F01109C5E0110FC5E011079
:10051000AC5E011070B50400151E07D101221F4BFF
:10052000C2541F4804F0BEF8002070BD11001D48E1
:1005300004F05AF929001C4804F056F981230122DD
:100540001B01E25423680020002BEED0180000218C
:1005500006F004FF00220021206806F02DFF002194
:10056000206806F00DFF0021206806F0FBFE2068E1
:10057000002106F013FF206807F0FEFB002802D1DF
:1005800000232360D1E70100084804F02DF920681A
:1005900007F068F80D204042F2E7C0461808000056
:1005A000CC5E0110205F0110FC5E0110AC5E0110FA
:1005B000F8B5140005000E001A00002C3FD0218968
:1005C00000290AD1200005F02DFF8023364C1B01A5
:1005D0002959994223D00020F8BD344804F004F989
:1005E00023001B68002BFCD12F4B2189E858083BC6
:1005F0001B1A9FB20A1CB94249D8290008310918B0
:100600000023200092B206F031F8274BEA589446B6
:100610006044E8502189300006F0D2FAD2E724483D
:1006200004F0E2F82900012330002A5B083109F0C8
:10063000E5FB0028CFD001001E4804F0D5F80121C9
:100640001D48494204F0D0F88123012228681B018B
:10065000EA540028BFD0002106F080FE00220021CD
:10066000286806F0A9FE0021286806F089FE00210E
:10067000286806F077FE2868002106F08FFE2868BB
:1006800007F07AFB002804D100232B60A4E71A1C92
:10069000B3E70100094804F0A7F8286806F0E2FF74
:1006A0000D204042F0E7C04608080000345F01100A
:1006B000445F0110605F0110FC5E0110AC5E011030
:1006C00070B50120414903F071FE041E00D178E0AD
:1006D000051D29003E480FF0F3FD28000FF0B4FE81
:1006E0003C4A01003C4804F07FF8002007F0A6F8DF
:1006F0002060002833D0210006F030FE0A2237495E
:10070000206806F059FE3649206806F039FE354962
:10071000206806F027FE3449206806F03FFE0022DC
:10072000324BE25014F01CFC2900314B294A20685E
:1007300006F092FA050014F01DFC002D12D181255F
:100740002D01635D002B06D1FA20800001F01AF81C
:10075000635D002BF8D0200003F03AFE70BD254801
:1007600003F0A0FF01212448494204F03DF8812311
:10077000012220681B01E2540028EFD0002106F07E
:10078000EDFD00220021206806F016FE0021206801
:1007900006F0F6FD0021206806F0E4FD0021206847
:1007A00006F0FCFD206807F0E7FA011E02D10023E5
:1007B0002360D3E7114804F017F8206806F052FFD1
:1007C000F5E70F4803F06EFFC8E7C0461C080000BD
:1007D000985F011092100000A05F01100904001042
:1007E00055030010B105001089040010080800002E
:1007F00015050010BC5F0110FC5E0110AC5E01101D
:100800007C5F011010B503F0FBFF0FF0F9FF00282B
:100810001AD10FF093FF0F4803F044FF0E480F4B1F
:1008200001000F4A0FF098FF041E08D10D4803F095
:1008300039FFFFF745FF10F023F8200010BD0A48EC
:1008400003F030FF0124F8E7084803F02BFF0124F0
:10085000F3E7C046EC5F0110046001103075000042
:1008600004004000206001100C600110D45F0110F2
:10087000094A830094464022634410B51C68C000B6
:100880006240C02414408022520113431C60034B79
:100890009C466044416010BD04C0014000400140DE
:1008A0000A4B80009C4604236044002901D00C239D
:1008B0000821002A00D10B00026853400C221A4084
:1008C00080235B01184302607047C04604C00140AA
:1008D000084B80009C466044002905D080239B0182
:1008E0001843022303607047C0239B01184302236F
:1008F0000360F8E704C00140D0231B061B6830B535
:100900005C1EA34105000F485C428446072030234B
:10091000284023408000EC08814020000A4D3C30F4
:1009200063448000A40041511B19002A04D0802296
:1009300092011343196030BDC02292011343196024
:10094000F9E7C0460041014000400140D023F0B526
:10095000C64604001B0698461B680C4F9B00F858BF
:100960000D00160000B5044209D1320029000443ED
:100970000D20FC5000F04CF904BC9046F0BD01F095
:1009800097FD43461B689B00F858EEE7901800203F
:1009900010B504000D2000F01BFAD0231B061B68C5
:1009A00002499B005A58A2435A5010BD901800208B
:1009B0000123D0228340120693629361094A830087
:1009C0009446402263441968C0004A40C021114047
:1009D0008022520113431960034B9C460523604457
:1009E0004360704704C0014000400140024B18685A
:1009F0008007C00F7047C04600C00640EFF310806C
:100A000072B6034A1368002BFCD0BFF35F8F7047A8
:100A10002C0100D0BFF35F8F0022024B1A6080F3DD
:100A2000108870472C0100D0F8B5EFF3108772B62C
:100A30000E4E3368002BFCD0BFF35F8FCB08C41879
:100A40000725A446C45C01230D40AB40180020409C
:100A5000234208D1624623431370BFF35F8F306097
:100A600087F31088F8BD100001F00AFD2C0100D0BA
:100A7000F8B5CE4647468C4680B5EFF3108872B67F
:100A8000214D2C68002CFCD0BFF35F8F9A422CD8EC
:100A9000D4080721055D0619012411408C402C4221
:100AA0001FD007218946063909E0D408055D0619DB
:100AB0004C460F001440A7403C002F4211D0013299
:100AC0009342F2D201204042BFF35F8F00220E4BCF
:100AD0001A6088F3108800280FDB0CBC90469946FA
:100AE000F8BD2C4310003470EEE7BFF35F8F002396
:100AF0002B6088F31088012040426346002BECD025
:100B0000089801F0BDFCC0462C0100D070B5EFF391
:100B1000108672B60A4C2368002BFCD0BFF35F8F9F
:100B200007230122CD0819408A40435D9343435572
:100B3000BFF35F8F0023236086F3108870BDC0462B
:100B40002C0100D00021044B044ABFF35F8F02C385
:100B50009342FAD17047C046000100D0800100D016
:100B6000044A1078431CDBB2172B00D910231370F2
:100B70007047C0469005002001238340002904D01F
:100B8000034A1360034A13607047034A1360FBE78C
:100B900080E200E000E100E080E100E0012383402A
:100BA000014A13607047C04600E200E0024B10307B
:100BB0009B688000C058704700ED00E070B50D00E4
:100BC000EFF3108672B60F4A1368002BFCD0BFF308
:100BD0005F8F0D4B10309B6884001B590B4A93426A
:100BE00003D09D4201D001F063FC074B9B681D516F
:100BF000BFF35F8FBFF35F8F0022024B1A6086F353
:100C0000108870BD240100D000ED00E0CD0100107F
:100C1000F0B557464E464546DE46E0B5894683B0B8
:100C200005001700EFF3108A72B65D4A1368002BB7
:100C3000FCD0BFF35F8F00205A4B18569B4600280C
:100C40006CDB5A464400584E2418A40033199846C9
:100C50009B7910351370554BAA009B6801929B58E5
:100C60009C469B1B2F2B28D8012261469143CB79B0
:100C7000BB4208D86AE053009B189B00F318DD794B
:100C8000BD4251D9190006228A56002AF3DA0B1DFB
:100C90009B46474E43465C46043B1B1B1B05454C8D
:100CA0005B0D23438B80887141468A714A46424BD3
:100CB0008E800B60CF718A601BE0404B9C4542D117
:100CC00042463F4B023413803E4B3619043B9E1B79
:100CD0003605384B760D1E433B4B56809380FF23E1
:100CE000D771937143464A469A60012342461A439C
:100CF000944661462D4B019A9B689950BFF35F8FD4
:100D0000BFF35F8F0022264B1A608AF3108803B06E
:100D10003CBC90469946A246AB46F0BD01F0C8FBEC
:100D20005B46002018568CE70B1D9B468B880434CD
:100D30005B051B155B4436199E1BE0233605760DBB
:100D40001B021E43A6E701F0B3FBB9E745460B00C3
:100D50001E489B1B5B415843000D194B2B80A31C65
:100D60009C46B4446546174B0434043B5B1B1B058F
:100D7000104D5B0DAC462B43454636196B800B1F5F
:100D80009E1B6346A87148463605760D1E430A4BE6
:100D9000AE80EF71A8600B60434613439C46A8E702
:100DA000240100D0071900209405002000ED00E088
:100DB00001BD000000E0FFFF01488047CD010010A9
:100DC00000A1FFFFC405002001BDFFFFAAAA00008B
:100DD000F0B5DE4657464E464546E0B50C0083B0BA
:100DE000EFF3108972B6594A1368002BFCD0BFF399
:100DF0005F8F574B9A68030010339F00D559554AAF
:100E00009046954232D0A54243D0534EAA1B2F2A7A
:100E10002CD80122824092465146504A1268114015
:100E2000019151464E4A1160BFF35F8FEFF3058287
:100E30009346002A33D101232A009A4393689C42A7
:100E400008D178E04B005B189B00F3189968A14229
:100E50002AD01A00062151560029F3DA019B002BF3
:100E600019D052463F4B1A603C4B1A60384B9B6876
:100E7000DD51BFF35F8FBFF35F8F0022334B1A60EA
:100E800089F3108803B03CBC90469946A246AB4615
:100E9000F0BD1500EAE75246314B1A60E6E793428F
:100EA000C9D001F005FBC6E706215956002922DB0F
:100EB0004A005018800034188046A0689860E07995
:100EC000D871062020569871A0797F2824D8A4884C
:100ED000F01A6405241544440019E0240005400D6F
:100EE00024022043988052181F4B9200B6181A789B
:100EF0001970B271B2E7594600290FD1FF319171D3
:100F00001A49918018490A789A71194A9B1B5B41CA
:100F10005A43120D0A70A1E71648E3E7164A17492B
:100F2000D21A083A5002400D0143998014495208E0
:100F30000A43DA8092E70621515613000029B7DAF6
:100F40005A46002AEAD14546DCE7C046240100D0D3
:100F500000ED00E0CD0100109405002000E100E06C
:100F600080E100E080E200E00719002001BDFFFF02
:100F7000AAAA000001BD0000CE05002000F0FFFF7E
:100F800000F8FFFF032310B50400074A18409446F9
:100F9000C0009C43FC3383406444226881409A43F0
:100FA00013000B43236010BD00E400E0F0B5EFF345
:100FB000058101240443EFF3108672B6214A1368B9
:100FC000002BFCD0BFF35F8F1F4B05001F4AED1AAB
:100FD0006D416A43120D1E4D8900AF6852B27F58B1
:100FE000A7421CD00621595691421CD012215956B5
:100FF000914222D01E215956914220D02A21595681
:101000000324914210D0134B19781A708171BFF3E9
:101010005F8F00220B4B1A6086F31088F0BDAB681F
:101020000D4C5C50EFE700246100091989005B1842
:10103000FF21997109499980E5E70124F4E7022429
:10104000F2E7C046240100D094050020AAAA0000BF
:1010500000ED00E007190020CD01001001BDFFFFE9
:10106000054B064A1360064A136053609360D360D1
:1010700013615361936170478080808000E400E0D9
:1010800004E400E01F2110B5091A0248FFF73EFDF5
:1010900010BDC0460E19002000B5074B83B00100FB
:1010A0000093002205230548FFF7E2FC002801DB3E
:1010B0001F23181A03B000BD2C6001100E19002068
:1010C00070B504000E001500FFF74AFD0100200076
:1010D00000F006F8A680E580BFF35F8F70BDC046C4
:1010E000024B9C4661448900016070474000003417
:1010F00010B50400FFF734FD01002000FFF7F0FFFA
:10110000FF232371BFF35F8F10BDC04610B50400ED
:10111000FFF726FD01002000FFF7E2FFFF23A38079
:10112000BFF35F8F10BDC04683680B4810B584467F
:1011300061446244090112019A18591854684B68B5
:1011400001209C4201D802D00020C0B210BD12681C
:101150000B689A42F9D8F7E7FFFFFF0F0A4B1968AF
:10116000EFF3108072B60A68002AFCD0BFF35F8FDD
:101170001B68BFF35F8F00221A6080F3108840BFA6
:10118000002000217047C046B4180020F8B557462B
:1011900045464E46DE46E0B599460CAB19780DAB98
:1011A0001B78050090469A460768002912D1BE7B3D
:1011B000002E45D074003B68A419033C1B195A78D3
:1011C0003100BA73002A00D1FA7300229A705A7063
:1011D0001A7003E00E004C006418033C2C4B0022F4
:1011E0009C46AB6861449C464346090161440B60E0
:1011F0004B464B600A9B8B600B9BCB603B681B197B
:101200009A705A701A707B7B9B46002B2CD0320050
:101210005946B8687B6898473A68002817D05B46FB
:1012200058465B005B441419033BA070D118D35C93
:10123000002B00D063705B460E707B73B34514D0F7
:1012400030003CBC90469946A246AB46F8BD5B4692
:101250005B005B44033BD3189E701119125D002A9A
:1012600000D05A705B460B707E7342464B46287D19
:1012700000F09CFB041E06D05346002B03D1310026
:10128000286800F0E1FD0E9B002BD9D01C70D7E739
:10129000FFFFFF0FF0B5DE4657464E46454600239A
:1012A000E0B58BB00893664B8200D45800239B4670
:1012B000099000F01BFB626806000F00EFF3108539
:1012C00072B61368002BFCD0BFF35F8F23689C4677
:1012D0005B7B9946002B68D0A2685A4B90464B44E2
:1012E0001B01984443461A685B6810001900801B74
:1012F000B941002963DD099800F058FB0023002262
:10130000984600230692079300239A466368BFF32A
:101310005F8F5A461A6085F310885346002B08D118
:101320000028C6D10BB03CBC90469946A246AB46BD
:10133000F0BD089B414618024B461843D0476268EF
:1013400006000F00EFF3108572B61368002BFCD077
:10135000BFF35F8F002F4FDB33003B4302D0236985
:10136000002B60D12368DA7B002A07D051008A184D
:1013700019688C4649466244033A51709A7B002AA8
:1013800001D14A469A734A46DA734B46E168013BFB
:10139000CA5C0132CA545B4623616368BFF35F8F46
:1013A0005A461A6085F3108883E700230022984686
:1013B000002306920793002300209A46A6E70029FF
:1013C00001D1002897D10021604600F09BFC4346E4
:1013D0001A685B680692079343469B689A464346A1
:1013E000DB689846E3684B44013B1B7808931B027B
:1013F00003432361002089E72369002BB2D0069ABA
:10140000079B921BBB41002B15DB59460491012120
:1014100003914946029141460191514620000091B5
:10142000FFF7B4FEB7E700F061FA32003B00121894
:101430004B41002BE9DA0122034B5242E5E7C0465B
:1014400078180020FFFFFF0FFFFFFF7F10B5144C3F
:101450006368002B04D00A211248FFF741FE10BD3B
:101460002300114A1021206800F066FB032000F0E1
:1014700031FA032000F00CFB03200C4900F050FA75
:10148000FFF76EFB0A4B9C4603232375D0231B06F4
:101490001B6860446375074B80006060DC60DAE7BE
:1014A000DC050020B418002029110010951200104E
:1014B000400000347818002000487047DC05002008
:1014C000F0B557464546DE464E46E0B585B0019339
:1014D00010AB1B7800270393002380469A460092A6
:1014E00043465A68EFF3108972B61368002BFCD09C
:1014F000BFF35F8F43461D68AC7B002C4FD0660066
:101500002B683619033E9B195A78AA73002A00D11A
:10151000EA7342469F705F701F7092684A4B944610
:101520000099019AE3181B01634419605A600E9AEE
:101530009A600F9ADA602B689B199F705F701F701A
:101540006B7B9B46002B46D022001900A8686B6875
:1015500098472A68002831D05B4658465B005B44B8
:101560009619033BB070D118D35C002B00D0737078
:101570005B460C706B735C452ED04346DB681B19D1
:10158000013B187843465B68BFF35F8F1F6089F3A8
:1015900010885346002B2ED10002204307E05B68E1
:1015A000BFF35F8F1C6089F310880120404205B0B3
:1015B0003CBC90469946A246AB46F0BD5B465B00FC
:1015C0005B44033BD3189C709119925D002A00D0B4
:1015D0005A705B460B706C734346187D009A019BF2
:1015E00000F0E4F982460028C7D04346210018687D
:1015F00000F02AFCC1E7039B002B23D00E9B0020A8
:101600000F999847030004000D000B431AD00029DE
:101610000ADA009A019B121BAB4100920193002B46
:101620000ADB039B9A465BE700F060F924184D4102
:1016300000940195002DF4DA0123044C5B420093E1
:101640000194EEE70020B2E7FFFFFF0FFFFFFF7FEF
:1016500070B542680400EFF3108572B61368002B72
:10166000FCD0BFF35F8F2068CAB2437B93420AD09D
:10167000FF230B405E00F3180668B4466344033B47
:101680009B78002B13D0E668FF23B4460B406344DD
:10169000013B090A1E78C9B28E420DD00020636852
:1016A000BFF35F8F00221A6085F3108870BD226936
:1016B0008A42F3D12361F1E7110000F0C5FBEEE7A8
:1016C000F0B504000D0006267642F717C646361917
:1016D0006F4100B584B08F4214D811D000F006F9E4
:1016E00032003B00121A8B41002B15DC002B3ED040
:1016F0002000290000F004F904B004BC9046F0BDBD
:101700008642EBD90026002700F0F0F832003B00BB
:10171000121A8B41002BE9DD002302930193154B34
:101720003200009314483B00FFF7CAFE0028DFDBBD
:1017300000239846BC46114A114F7B6A9C4504D849
:10174000B96A8E42D4D99C45D2D11168EFF310808A
:1017500072B60B68002BFCD0BFF35F8F1368BFF32A
:101760005F8F4146196080F3108820BFE5E7002AAB
:10177000BED0D1E75D110010DC050020B4180020B8
:101780000040054070B5060000F0B0F8FA220400F1
:101790000D00002330000021920002F0B9FD001975
:1017A0006941002902DBFFF78BFF70BD0120014971
:1017B0004042F8E7FFFFFF7F70B5EFF305830500B8
:1017C0000C0084B0002B0FD0104B0020596A8C42C3
:1017D00003D89B6A0130AB4201D304B070BD641AD8
:1017E000611E8C41E0B2F8E7094E02930193094B68
:1017F0000200009330000B00FFF762FE011EE3DDE4
:1018000020BF3000FFF724FFDEE7C0460040054060
:10181000DC0500205D110010F0B5EFF30582D6461F
:101820004F4646461000C0B51038EFF3108872B628
:10183000214C2368002BFCD0BFF35F8F01231900DC
:1018400081401E4D1F006963AA461D4D29601D4D34
:101850002E78AC463500C5402F402B4215D053465C
:10186000194D5F6A83005D59AF4218D3174A8E4302
:101870009B5862461670BFF35F8F0022226088F388
:101880001088002B06D0984704E0BFF35F8F2760D5
:1018900088F310881CBC90469946A246F0BD0C4BBC
:1018A00092009C46624413681360BFF35F8F00236D
:1018B000236088F31088EDE7280100D00040054040
:1018C0003C7005400D190020C8180020CC100020E5
:1018D000D03F054010B50100024A0348FFF7A4F8C5
:1018E00010BDC0465060011001190020034B596A19
:1018F0000A00986A596A8A42FAD170470040054046
:10190000064A536A9942FCD807D1044B02E05A6A4E
:10191000914202D19A6A8242F9D370470040054051
:1019200070B504000D00EFF3108672B61A4A136802
:10193000002BFCD0BFF35F8F002D1BD02000FFF7E2
:1019400035F9164981420AD02000FFF737F9012105
:101950002000FFF711F90123A340114A1360114B36
:10196000A400E550BFF35F8F00220B4B1A6086F393
:10197000108870BD0B4BA200D5500122A2400A492D
:1019800020000B7893430B700449FFF721FA0021E4
:101990002000FFF7F1F8E5E7280100D01918001042
:1019A00038600540CC1000200D190020F0B54F46DE
:1019B000D6464646C0B50700304C616A0D00A66A9F
:1019C000616AA942FAD18B4208D805D001201CBC1B
:1019D00090469946A246F0BDB242F7D9EFF310897E
:1019E00072B6274801680029FCD0BFF35F8F01253C
:1019F0002449BD408C460978204C0E002E43884671
:101A0000F1B28A46614650460870391D1E48890069
:101A100065630A51B9000B50216A0020294219D090
:101A2000616A0800A66A616A8142FAD18B4219D8BC
:101A300001D1B24216D8C2451DD0104B1F201D62E5
:101A40005D6301230740BB40104A1E3813606346A4
:101A500042461A70BFF35F8F0022094B1A6089F368
:101A60001088B4E70020BFF35F8F0022044B1A6098
:101A700089F31088ABE70120ECE7C0460040054041
:101A8000280100D00D190020C818002080E200E0D5
:101A900010B5EFF3108472B60A490B68002BFCD026
:101AA000BFF35F8F01238340074A0848136202781F
:101AB0009A430270BFF35F8F00230B6084F310889A
:101AC00010BDC046280100D0004005400D1900207F
:101AD00070B505000E001400002924D0002A24D07F
:101AE00080686B689847296800280ED063001B192E
:101AF0007200033B9219CB18033A9E7088188A5CD7
:101B0000002A14D1047030000EE073009B196200AB
:101B1000033B1219CB18033A9C7088188A5C002A80
:101B200000D05A700670200070BD0800FCE75A70A3
:101B300004703000F8E7C04630B583600023CCB2B3
:101B400043730133047342608373C4730D000068F0
:101B5000012C06D9421C0133DBB2137003329C42C4
:101B6000F9D1FF2129404B005918002340180338B0
:101B7000437030BDF8B5CE46474606000C0080B530
:101B8000002907D04D0003686D18033D5A19577896
:101B9000002F04D120000CBC90469946F8BD790076
:101BA000C919033988464344597889460021597038
:101BB000517073683A0021008068984733680028A4
:101BC00014D042469A18947059195B5D002B00D0CE
:101BD00053700F70270049463000FFF7CBFF3900E4
:101BE00002003000FFF774FF0400D3E7424641468D
:101BF0005D19AF709A185B5C002B00D06B7014708D
:101C0000E9E7C046F0B557464546DE464E46E0B5E4
:101C10000D006B0001685B19DF1E0400C85D83B016
:101C20000192CA19002850D043001B18033BCB185F
:101C30005E78B446002E1AD1019E002E42D0E67B7B
:101C4000002E04D073009B19CB18033B5D70A37B5F
:101C5000002B00D1A573E57300282FD1002353700A
:101C600003B03CBC90469946A246AB46F0BD72001C
:101C70006244033A89184A78904600224A70914695
:101C80005A70010032002000FFF722FF43468246CF
:101C9000002B07D05B0021684344033BCB185A78E4
:101CA000002A16D1424651462000FFF711FF216855
:101CB000019BCA19002BC2D10028CFD043001B18AA
:101CC000033BCB1800219970C8E7019B002BB6D1CC
:101CD000C4E75000801803380918487883464846FE
:101CE0004870587041462000FFF7F2FE5946804682
:101CF0002000FFF73FFF414602002000FFF7E8FE0B
:101D00008046CFE7F0B54E464546DE465746E0B53D
:101D1000467B040075000068AD19033D83B0019156
:101D2000415D4219002952D04B005B18033BC31898
:101D30005F78BC46002F1CD1019D002D44D0E57B6F
:101D4000002D04D06B005B19C318033B5E70A37BAE
:101D5000002B00D1A673E673002931D10023300097
:101D60005370617303B03CBC90469946A246AB46A3
:101D7000F0BD7A006244033A80184278934600220C
:101D8000427091465A7020003A00FFF7A1FE5B4670
:101D90008046002B07D05B0021685B44033BCB18D7
:101DA0005A78002A17D15A4641462000FFF790FE84
:101DB000019B010020684219002BC0D10029CDD021
:101DC0004B005B18033BC31800209870C6E7019BCB
:101DD000002BB4D1C2E750008018033809184878A6
:101DE000824648464870587059462000FFF770FEFA
:101DF00053468346002B07D05B0021685344033BC6
:101E0000CB185A78002A06D1594652462000FFF7CF
:101E10005FFE8346C7E7500080180338091848461C
:101E20004F784870587051462000FFF751FE390036
:101E300081462000FFF79EFE494602002000FFF782
:101E400047FE8246E0E7C04670B5040000292CD06A
:101E5000437B8B422ED00568480040180338281871
:101E60008278002A21D053009B18033BEA5CEE18CD
:101E70008A4202D11BE0002A08D053009B18033B82
:101E8000EB185A788A42F6D142785A700023012220
:101E9000837043702000FFF7B5FE617B02002000D5
:101EA000FFF716FE6073012000E0002070BD43784C
:101EB0003370EBE701221900FFF7A4FE60730120E5
:101EC000F4E7C046F8B5040006200D0000F0CAF99A
:101ED000002845D02B4B2C49E3185A42534180220D
:101EE000D20394465B421340284A63441360284A55
:101EF000136018008A689043FBD1224B8021E318BD
:101F00005A425341234A5B0049000620995200F08F
:101F1000A9F92900C00001F06FFEC30921D14027B3
:101F20000122260080256262A36200232C36AD01C7
:101F300035432B60062000F095F93900800001F050
:101F40005BFE6023E26A53406E221A4080235B01ED
:101F500033431A60104B236310232B600D3BA364A3
:101F6000F8BD0E4A934203D900230D4F0D4AD8E71E
:101F70007F221040013040089F011A003F180300E3
:101F8000CFE7C0460080FCBF00C0004000E000403A
:101F900000F000401019002001030000FEFF0000C7
:101FA000C0FF3F00FFFF000030B50C2083B000F001
:101FB000B3F9FEF71BFD00280ED0944B944A1A602B
:101FC0005A609A60DA601A615A619A61DA611A623B
:101FD000904A5A6203B030BD8F4CA06700F0A4F95C
:101FE00001228E4B1A60636C012BFCD103228C4BB7
:101FF0001A60894A936B012BFCD101330121894A74
:1020000089480093043300F033F90523874A00938D
:102010000121874800F02CF9864B5A68FF2A02D824
:10202000802252005A608022784C7D4B2169120137
:10203000804D1A60002905D0606901F0DDFD013096
:102040000138FDD1E0217B4B02201A68114080222B
:1020500052012A4311601968484003210140116070
:1020600004219A681142FCD08022802192012A43E7
:1020700009011160802252005A606F4B23616F4B3F
:102080005968FF2900D85A6003226C48634B01212C
:102090001A60020093681942FCD0E02513681D40C5
:1020A00080235B0103431D6012684A4003211140F5
:1020B00019600221614A93681942FCD08023802173
:1020C0009B0103430901196080215D4B4900516068
:1020D00063615C4B5A68FF2A00D8596080225A4BD2
:1020E000E1691201574D1A60002905D0606901F0BD
:1020F00083FD01300138FDD1E02252490B681A40BE
:1021000080235B012B431A60802380229B012B4399
:1021100012011A6080223E4B52004A60E3614B4B31
:102120005968FF2900D85A608022494B216A120160
:10213000464D1A60002905D0606901F05DFD01304F
:102140000138FDD1E02241490B681A4080235B0130
:102150002B431A60802380229B012B4312011A60BB
:10216000802380225B004B60294BD2022362394BD3
:102170005968914200D25A608022374B616A12013D
:10218000344D1A60002905D0606901F035FD013039
:102190000138FDD1E0222F490B681A4080235B01F2
:1021A0002B431A60802380229B012B4312011A606B
:1021B0008023DB024B60174B6362284B5A68FF2A6F
:1021C00002D8802252005A608022254BA169120158
:1021D000224D1A60002905D0606901F00DFD013023
:1021E0000138FDD1E0221D490B681A4080235B01B4
:1021F0002B431A60802380229B012B4312011A601B
:1022000080235B004B600E4BA361E3E6FC120020D1
:10221000006CDC021BB70000008000403CB00040B6
:1022200030B00040002F685900800240008C864783
:1022300000C0024030800040001BB7003C800040DE
:10224000405973075480004054B000406080004003
:1022500060B000406C8000406CB00040488000409E
:1022600048B00040014B8000C0587047FC1200206D
:10227000F8B504000C2017001D000E0001F0BCFC96
:102280004101091A8B01591AC9000918890138003E
:1022900001F0B2FC069A2B04120313432268002AB1
:1022A00021DB194AA21851424A41802149018C463A
:1022B00052420A40154962440A6015490A601549AC
:1022C00017008D68AF43FBD1C021221D8901114346
:1022D00021222660A0600A602268002AFCDAE360FE
:1022E00008230B60F8BD3F2221680A40B242D8D1D2
:1022F000A2681205120D8242D3D1EE21E268C90212
:102300000A409A42CDD1EDE70040FDBF00E0004019
:1023100000F0004000C000408023024A9B000343BD
:10232000D362704700800540AA23064A1B01136050
:102330002F230549D360054B19605368002BFCDA45
:102340007047C0460040024000B0FA000060024002
:102350002C4B2D4A70B51A602C4A2D4B2D491A6012
:1023600010008B689843FBD12B4C2C4B9C4209D21C
:10237000013B1D1BAD080135AD002D1908CC984758
:10238000AC42FBD1FFF710FE254A214B1A60214ACF
:102390009368DB018033FBD14022224B224C234D3A
:1023A0009A675A671A67DA66AC4208D22368200037
:1023B000002B21D00834FEF7A9FEAC42F6D31C4C0A
:1023C0001C4DA168C022280002F014F8A560FEF799
:1023D000B9FBFEF745FEFFF739F8174C174B9C4247
:1023E00009D2013B1D1BAD080135AD002D1908CCEC
:1023F0009847A542FBD170BD0834FEF779FEAC4288
:10240000D4D3DCE700E00040BFCDFBFEFE7F3C0004
:1024100000F0004000C00040E80E0020F80E002050
:10242000FFFFFF0100F00140E00E0020E80E002059
:1024300000ED00E000000020F80E0020000F00205A
:1024400000BEFDE7094A03001068002805D00849CE
:10245000C3188B4207D81360704706480449C31855
:1024600010608B42F7D901204042F5E73418002074
:102470000000042004CE002010B5FFF7E1FFC046A5
:102480000FB400B5084883B002F00CF9049B002B90
:1024900007D005A91800019101F032FB034802F0B2
:1024A00001F90120FFF7CCFF746001104CF5041016
:1024B00010B50148FFF7E4FF846001107047C04683
:1024C000F8B557464E46DE464546E0B51F000A9B26
:1024D00005009B460D9B0E00914692469B0718D126
:1024E0000B9B0C9A934214D213000B9AB8469B1A7A
:1024F0004B444C460F0006001D00220043460134A9
:1025000039002020B047AC42F7D1AA4635003E0042
:1025100047460B9B002B38D09A441C00D0465346AC
:102520001A1B5B46013C185D31003B00A847002C9C
:10253000F5D10D9B9B0721D543464A469C1A0C9B1F
:10254000A3421BD93A009A464F469146E2194B46A0
:10255000310020200134A8475445F7D343460C9955
:10256000DB1B0133B9460022994203D343464A1E7E
:102570004A44D21A434690460133984440463CBCF4
:1025800090469946A246AB46F8BDD046D1E7C04634
:10259000F0B54F464646D646C0B584B098460EAB19
:1025A0001B78129F994694460D9C109B119EBA076A
:1025B00025D4002E69D19C4200D3C2E001223A40CA
:1025C00092461F2C00D9BBE00C9A551E302201E028
:1025D000202C03D001342A55A342F9D85246002AB0
:1025E0000DD0B4420BD21F2C62D80C9A551E30224B
:1025F00001E0202C5CD001342A55B442F9D1FA060E
:1026000035D57A055DD4002C57D10F9B102B00D106
:102610007CE00F9B022B00D18DE030230C9A01242B
:1026200013704B46002B27D02D230C9A13550134E1
:102630000C9B624600930397434602960194FFF772
:102640003FFF04B01CBC90469946A246F0BDBB06B5
:1026500063D4202CECD00C9B1A190134782313700E
:10266000202CE5D030220C9B1B191A700134202C31
:10267000DED04B46002BD7D17B0735D43B07D7D5CF
:1026800020230C9A13550134D2E7012215003D4056
:10269000AA463A4220D04A46002A2AD10C323A426F
:1026A00027D19C429DD21F2C00D88DE7202E19D90E
:1026B0002024FA06BCD57A0503D4A3421BD0A64237
:1026C00019D00F9B102BC2D0022BC9D1202CAFD018
:1026D0000C9B1B19013440E09C4200D38FE71F2C58
:1026E00000D871E720248AE72B230C9A1355013474
:1026F0009EE7013ED5E7631E012C00D185E70F9AC6
:10270000102A20D0022A25D01C00ABE7BB060DD42E
:1027100078230C9A01241370A4E7202C00D187E7BA
:1027200058220C9B1B191A70013499E758230C9AF4
:102730000124137096E70C9A60330124137091E71B
:10274000202400265BE7023CBA06E9D40C9A121951
:102750001C0083E70C9A9246534462221A707FE76A
:1027600010B5002800D110BD01F050FFFBE7C046B6
:102770000B0010B5002802D049681B68984710BDAF
:10278000F0B5DE46574645464E46E0B59BB09B4603
:10279000249B0A909846259B0B910C9240464246FA
:1027A00019009A4601F0E1FC002800D0E8E001227F
:1027B000404651467F4B524201F0D2FC002800D0E7
:1027C000DEE00122404651467B4B524201F0B2FC12
:1027D000002800D0D4E0002200234046514601F0FA
:1027E000A9FC002800D0CAE15346C14609938023C2
:1027F000289ADB001A400E92289A1A4201D1062329
:1028000026934C46099B234300D0D9E0289B002601
:1028100000271B0500D4AEE100230D93269B190071
:102820000D9B994200DCB0E1C81A431E2693802319
:10283000289ADB001A430023002528920D93279B3A
:102840000024AB4200D95C1B0223289A1A400E9246
:10285000289A134203D06B426B415B421C400D9B94
:10286000002B07D04846099932003B0001F009FCD3
:1028700081460991002200234046514601F05AFC4E
:10288000002805D0802000068446099961440991FA
:10289000289A4A4B0A9E13404A460493269B0B995A
:1028A0000293099B03940092019330005B460C9ABB
:1028B000884600F0A1F90400002D72D0289B220068
:1028C00098061F23C017984341465B466530B047C2
:1028D0000D9B671CDA179C18DB0F98466B1E9946F8
:1028E0000025544001E0202D13D00AAA94461F234E
:1028F000200063440A2101355E1901F07DF9303171
:10290000317020000A2101F077F926000400092E19
:10291000E9D8052306934B460593002304930A3315
:10292000039343463A000A9E0B9F029312AB009317
:1029300039005B4630000195FFF72AFE0E9B04002C
:10294000002B2ED00C9B279AC51AAA4229D93C00ED
:10295000814698461700434621005A1920205B46BD
:102960000135B047AF42F6D84C460C992798631A08
:1029700001330022984200D30AE10134141910E017
:10298000289B42460493279B0B990393269B0A9806
:1029900002935346009201935B460C9A00F02CF987
:1029A000040020001BB03CBC90469946A246AB46B2
:1029B000F0BDC046FFFFEF7FFFFFEFFFFFF7FFFF18
:1029C000764B099D9C466800400D604401F0E0FB99
:1029D000734A744B01F06FFB734A744B01F04CFB6C
:1029E0002B03734A1B0B1A4306000F00714B110097
:1029F00048460022099501F03AFB6F4A6F4B01F0FF
:102A00005AFB02000B003000390001F035FB01F0E9
:102A1000D7FB0D9001F0BCFB694A6A4B04000D0026
:102A200001F049FB0022684B01F026FB01F0C8FBD6
:102A3000664A0600664B2000290001F03CFB0400BA
:102A400030000D000F9601F0A3FB624A624B01F0CB
:102A500032FB02000B002000290001F008FB0200FD
:102A60000B0006000F0001F026FB320004000D00F1
:102A70003B003000390001F0FFFA00221090119164
:102A8000564B2000290001F0FCFA0022544B01F0C3
:102A9000F3FA02000B002000290001F0F2FA0022F4
:102AA000504B01F0E9FA02000B002000290001F070
:102AB000E8FA0D00802132003B000400C905002027
:102AC00001F0D5FA02000B002000290001F0D4FA31
:102AD00002000B001098119901F0D3FA0022344B38
:102AE00001F0CAFA404A0F9B9446634400221B053A
:102AF00001F0E1FA06000F0002000B0048460999B8
:102B000001F018FB00280AD00D9B3000013B390072
:102B10000D930022324B01F0B4FA06000F00C625D7
:102B20000D99330063318D42AD4128996D420435D2
:102B3000090500D483E63B4300D16FE6099C484673
:102B400021002A4A2A4B01F003FB002808D000226A
:102B500048462100274B01F0EDFA002800D05DE641
:102B6000269B002B00D16AE60E9B5A1E9341269AA3
:102B7000D31A269363E6002304250D935FE6802392
:102B80001B065344C146099331E6002326934EE6C3
:102B90000A008446013A6244121BEEE601FCFFFF84
:102BA000FB799F501344D33FB3C8608B288AC63F3C
:102BB0000000F03F0000F83F61436F63A787D23FFA
:102BC00071A379094F930A400000E03F1655B5BB49
:102BD000B16B0240EF39FAFE422EE63F00002C4076
:102BE0000000244000001840FF0300002D431CEBB0
:102BF000E2361A3F80842E41F0B54E46DE465746F7
:102C00004546E0B597B09946209E219F229B83467A
:102C1000984607910C923B0032003000390001F0D9
:102C2000A4FA002800D0C1E1012230003900CA4BCB
:102C3000524201F07FFA002800D0E0E0012230008B
:102C40003900C64B524201F08BFA002800D0B6E0A2
:102C5000002230003900C24B01F082FA002800D077
:102C600098E0002230003900BE4B01F063FA0028E2
:102C700000D08FE0002200233000390001F05AFA22
:102C8000002800D0B0E000230D93249B5B0501D405
:102C90000623984608AB9C46172200243023414661
:102CA000624404E0013413550139202C01D0092974
:102CB000F8D888463000390001F082FA4346DA003D
:102CC000A94B05009B181A685B680892099301F0EC
:102CD0005FFA02000B003000390001F0C8F9089AD1
:102CE000099B01F0E8F90A900B9101F08DFA8246F8
:102CF00001F04AFA02000B000A980B9901F0B7F9AB
:102D000000229A4B0A900B9101F02AFA002800D178
:102D1000C0E001239C46E244504601F035FA02002F
:102D20000B000898099901F00BFA002802D0002343
:102D30009A4601354346002B69D008AB17269C46BE
:102D400008956644554614E001235B4243440A213A
:102D500028009A4600F050FF01343031371939709D
:102D600028000A2100F048FF092D00D8D5E0D04600
:102D70000500202CE8D10323249A1340012B00D115
:102D800000E10EAB9846249B01940393239B02938E
:102D900043461EE0249B58460493239B00960197CC
:102DA000039343460C9A029307994B46FFF7E8FCBE
:102DB00017B03CBC90469946A246AB46F0BD249B5A
:102DC0005B070ED403226A4B249901920391239945
:102DD0000291009358464B460C9A0799FFF770FBF7
:102DE000E6E70422634BEFE73B00320000200021BE
:102DF00001F03DF9012306000F000D9345E7249BE8
:102E00000393239B0293042301935B4BE1E7280088
:102E100001F0BEF902000B003000390001F027F983
:102E2000524B002206000F0001F084F90EAB9846C9
:102E300000280AD10022300039004C4B01F090F9F3
:102E4000002802D1EB0700D50135202C32D008AA8A
:102E500094461723280063440A2101341E1900F008
:102E6000A3FE3031280031700A2100F09DFE051EBE
:102E7000EBD10323249A1340012B00D191E01F2CA6
:102E800000D980E70D9B002B3BD02D2342461355E4
:102E9000013478E700220A980B99344B01F04AF983
:102EA000002800D046E75346002B67D101239C46FB
:102EB000E2443FE70323249A1340012B00D062E74A
:102EC000239B002B00D15EE70D9B002B03D1249A9E
:102ED0000C33134202D0239B013B2393239B9C4240
:102EE000CDD208AB9C461722302362441F2C06D853
:102EF0002399013413558C42C1D0202CF8D12024C1
:102F000041E7249B5B0721D4249B1B0700D43AE7AD
:102F1000202342461355013435E75746089D202C9F
:102F200037D0220030214046002F08D00132B15462
:102F3000202A43D0D3431B191B18002BF6D10EAB0C
:102F400098462E234146541C8B547EE72B23424641
:102F50001355013417E7C046FFFFEFFFFFFFEF7F78
:102F600065CDCD4165CDCDC1886201100000E03F47
:102F70009060011094600110A0600110DB0700D484
:102F8000D8E693E7239B002B00D1FAE60EAB9846D8
:102F90009AE70323249A1340012B00D0F1E60EABED
:102FA0009846239B002B00D169E78DE7249B039370
:102FB000239B029303230193064B0AE70323249ADE
:102FC00020241340012B00D0DBE6239B2024002B80
:102FD000DCD1D6E69C600110F0B5DE464E46574681
:102FE0004546E0B59FB01C00289B93460993CF4A05
:102FF000CF4B894608901A60002900D116E20023C1
:1030000020789A46002800D118E226001D004C4680
:103010000AE02A006F1C5B46089D2100A8473D007E
:103020000136307800287AD02528F2D110239A462C
:10303000083B9946043B9846023B00219C46721C83
:10304000107816000300203BDBB2102B03D8B94FD9
:103050009B00FB589F460300303B092B3CD90023C3
:103060000A932A2800D171E0002398462E2847D0E1
:103070000300683BDBB2122B1FD8AF4A9B00D3582A
:103080009F46012301321943DAE7634601321943AF
:10309000D6E7434601321943D2E75346013219437A
:1030A000CEE74B4601321943CAE770786C2800D14D
:1030B000BFE280235B00194301360300253BDBB2EE
:1030C000532BA6D89D4A9B00D3589F4680235B0074
:1030D000707819430136F0E700270300B800C019E3
:1030E00001364000C018337830381A00303A0700F3
:1030F000092AF3D90A901800002398462E28B7D140
:1031000080237078DB0019430300303B721C092BCD
:1031100000D895E12A2800D1A6E11600A8E7A1462B
:10312000AA462C00D34503D801235B425B449A4650
:103130005B46524649460020089DA84720001FB024
:103140003CBC90469946A246AB46F0BD099B40CB9D
:103150000A96002E03DB50780993561C84E7283822
:10316000014370420A9009935078561C7CE77828F6
:1031700000D1D4E1582800D168E26F2800D152E391
:10318000622800D1D8E110230A009A430B926928E3
:1031900001D000F0A2FC0A230C934B0500D4D5E12A
:1031A00001230B9A9A430B92692800D1CEE164283F
:1031B00000D1CBE10B9A802311009B0019408A4675
:1031C0001A4200D032E3802311005B001940894687
:1031D0001A4201D000F002FC13005B0600D510E398
:1031E0000B9B1B0601D400F06EFC099B04CB120460
:1031F000120C924609935346002B00D064E30B9ABD
:103200001033110099430B91520500D45CE3002365
:1032100099460B9B06930A9B0593434604930C9B8C
:1032200003930023DEE27078682800D107E2802350
:103230000136194341E780239B007078194301361A
:103240003BE7462800D174E10722099B049107332C
:1032500093430A9A19000392424602920CC90898B5
:103260000092019309912A005B462100FFF7C4FCFC
:1032700001360500D5E6099B1A0008CA9146002BC5
:1032800000D105E1212211438A460EA884461F2160
:103290006144099500220F27A4460D0002E0202A70
:1032A0000CD00B003C001C4020003730092C00D80B
:1032B00007380132A85419090F2BF0D86446099D2C
:1032C000F0E08B0700D4D1E1099B2A0099466B1CE2
:1032D00098464B4601CB21009946089F5B46C0B2F9
:1032E000B8470A9B9C466544012B00D890E2B24641
:1032F0005E464746A846089D3A0033000137210044
:103300002020A8474745F7D1B3464B4656463D00D7
:103310000993013685E62A006F1C5B46089D210053
:103320002520A84701363D007BE6C046D92F001076
:1033300048180020A8600110EC60011038610110ED
:10334000099B04CB994643460992002B00D097E095
:1033500013789C46002B00D1B3E302235B425A1C36
:10336000099B924618000A9F0B92504402E0834248
:1033700000D169E15A780133002AF8D1099A0A97F5
:103380009B1A0B9380230A00DB001A400C9219420F
:1033900004D00B9B434501D943460B9302231A00EB
:1033A0000A400D920B4200D184E16046002823D0F0
:1033B0000C9B002B00D124E1A844C246099B574630
:1033C0005B1B9846089BB2462A0026005C469B463B
:1033D00009E023003100551CD8474346585D0028BA
:1033E00000D13FE12A009742F3D1A3463D003400CB
:1033F00056460D9B002B69D00B9B0A99A846994213
:1034000064D98C466544ED1A089B47469A46B046F7
:1034100026005C463A002300013731002020D047C7
:10342000AF42F7D1A346340046464FE0D24B207856
:10343000089300239A46002800D0E6E5002471E6B0
:10344000434606000A9F9800C018013240008019C8
:103450001678030030003038303B0928F3D93000AB
:10346000984616000A9703E6099B023604CB90465D
:10347000D2434046D2171040804609933078F7E592
:1034800013789C46002B00D11AE34346013B66E7C4
:103490001022080090431132104382460022490551
:1034A00000D4F2E65346069308230593434604935B
:1034B000102303930023029316AB019200932A007A
:1034C0005B4621000898FFF763F805004B4601367C
:1034D0000993A6E5202302009A43472A04D18023BA
:1034E0001B01194302239843452801D12023194386
:1034F0000722099B0491073393430A9A1900039208
:10350000424602920CC908980092019309912A0040
:103510005B462100FFF734F90136050081E51023F1
:103520000C930C230A009A430B924B0500D43BE604
:1035300036E62023194387E602230C930B910B995F
:103540006428EED10B9B5B0500D529E60B9A8023FE
:1035500011009B0019408A461A4200D0CEE0802319
:1035600011005B00194089461A4200D0DBE11300CC
:103570005B0600D51DE10B9B09991B0600D499E25F
:1035800008C91BB2D8171A18424092B20991924644
:10359000DA0F1292002B09D1802310220B99DB0045
:1035A0000B4091430B91002B00D012E10B9A612349
:1035B000920600D541230EA91F228C46DBB262443D
:1035C0000A3B57461395A2464D460C9CB1460D93B7
:1035D00016000AE03033DBB201357355A74200D242
:1035E0001CE1202D00D119E107002100380000F076
:1035F00003FBCBB20929EDD90D9A94466344DBB2A3
:10360000EAE7099B5F465B1B98460A9BB3469A46CE
:103610002600089C2A003B003100A04743460135A4
:10362000585D0028F6D1534634000A935E46BB46E7
:10363000DFE6C0239B00B078194302363DE5C02386
:10364000B0781943023638E50A979BE60C230A0046
:103650009A4314331A4310230B920C934B0500D456
:10366000A8E59DE5A34634005646C2E60A9A012A1B
:1036700000D82EE26B1E9F18089BB0469946260084
:103680005C462A002300013531002020C847BD4296
:10369000F7D1A34634004646099B3A0001CB2100EE
:1036A00098467D1C5B46089FC0B2B847434601362A
:1036B0000993B6E40B9A0A98531C904200D80AE288
:1036C00043199B1A1F00089BB24626005C469B4686
:1036D0002A002300013531002020D847BD42F7D110
:1036E0000A9BA34601330B93099B34001B78564673
:1036F0009C466046002800D05AE6E7E60722099B70
:1037000007339343013294469C4462465F680992B2
:103710001A68FB17109311931098119903005340E6
:103720000E930B007B400F9394460E9A0F9B121A38
:103730008B410E920F93FB0F6246129300233A4384
:103740009A463DD00B9A6123920600D54123002270
:10375000DBB20EA90A3B8C4691460D9343461F32BD
:103760006244139515964D460E9E0F9FA1469046B6
:103770000C9C14930FE0C046BD2400103032D2B22E
:10378000434601355A55BA4500D17CE1202D00D180
:103790007CE106000F00220000233000390000F019
:1037A00069FAD2B2092AE9D90D9B9C466244D2B289
:1037B000E6E7FF23099904C913401A000991E6E6D8
:1037C0000B9A1033110099430B915205BAD500237F
:1037D00099460B9B06930A9B0593434604930C9BC7
:1037E0000393129B02934B46019316AB2A0000935E
:1037F00021005B460898FEF7CBFE01360500FFF777
:1038000010FCFF22099B02CB11408A460993F2E487
:103810004B46454609930136FFF703FC4E46544696
:10382000A946139DD5E708230C9387E60722099B39
:1038300007339343013294469C44624609921A68C6
:103840005B6810009A4613005246134307D10B9A47
:103850001033110099430B91520500D5D7E40B9A10
:103860006123920600D541230022DBB20EA90A3B58
:103870008C4691460D9343461F326244574612953B
:10388000A2464D460400B14690460C9E13930DE0AF
:103890003032D2B2434601355A550023BB4200D1E3
:1038A000FDE0202D00D1FDE004000F0032000023D8
:1038B0002000390000F0DEF9D2B2092AE8D90D9BC8
:1038C0009C466244D2B2E5E70B9A6123920600D58A
:1038D0004123DBB20EA90A3B1F228C460D93230025
:1038E00062445446129517004D469A46B1460C9EC6
:1038F00008E03033DBB201357B55B4420ED3202DC6
:103900000CD004003100200000F076F9CBB2092978
:10391000EFD90D9A94466344DBB2ECE74E46544629
:10392000A946129D75E4099B1A0008CAD91713927B
:103930005A184A409146DA0F1292002B08D1802380
:1039400010220B99DB000B4091430B91002B2BD1E4
:103950000B9A6123920600D541230EAA1F27944695
:10396000DBB20A3B0D95674455460993A2464C4687
:10397000B1460C9E08E03033DBB201357B55B442D2
:103980000ED3202D0CD004003100200000F034F9BB
:10399000CBB20929EFD9099A94466344DBB2ECE72C
:1039A0004E465446AA460D9D0B9B2A0006930A9B41
:1039B00021000593434604930C9B08980393129BA4
:1039C000013602935346019316AB00935B46FEF714
:1039D000DFFD139B05000993FFF723FB099B04CB35
:1039E00091461293002A08D1802310220B99DB0004
:1039F0000B4091430B91002B2BD10B9A6123920624
:103A000000D541230EAA1F279446DBB20A3B0D9531
:103A1000674455460993A2464C46B1460C9E08E0C1
:103A20003033DBB201357B55B4420ED3202D0CD0A0
:103A300004003100200000F0DFF8CBB20929EFD9F3
:103A4000099A94466344DBB2ECE74E465446AA46D4
:103A50000D9D0B9B2A0006930A9B2100059343466C
:103A600004930C9B089803930023029353460193FD
:103A700016AB00935B46FEF78BFD129B0500099386
:103A80000136FFF7CEFAB44200D87FE6149B4C46CD
:103A90000E960F97A9469846159E139D99E6A64245
:103AA00000D8FEE6139B4E469846A9465446129D02
:103AB000FFF7AFFB08C9D8171A184240099166E50D
:103AC00000230B935EE4099B04CB92460993FFF716
:103AD00092FB2F00E0E50B930BE6063B0C932EE5E3
:103AE00000B585B0039101210290009303481300B3
:103AF0004A4202A9FFF770FA05B000BD7127001015
:103B000010B5094A0300146884B0002C08D00122C3
:103B100000910648524203A9A047012004B010BDFD
:103B200000F0C0FD0020F9E74818002061270010D0
:103B300001480421014B1847100600206D3B00107E
:103B4000014B9B681847000010060020142310B595
:103B50000100188804331B88984710BD162310B540
:103B60000100188802331B88984710BDF0B5C6467F
:103B700000B5002916D01423040001259846182703
:103B8000890046184346216818883B88984701C435
:103B9000431E984140420540A642F3D1280004BC90
:103BA0009046F0BD0125F9E7124A936F9B0815D2A4
:103BB0009066D166002905D0FFE7FFE7FFE7516F68
:103BC000106F704704B580210906C21751400028C4
:103BD00000D0C84312F028F9002104BDF0B5146EDE
:103BE000556E576F166FFFF7E3FF146655665767FC
:103BF0001667F0BD000000D0114A936F9B0813D2E6
:103C000010665166002905D0FFE7FFE7FFE7516F17
:103C1000106F704704B5002801D00020C04312F097
:103C200003F9002104BDC046F0B5146E556E576F00
:103C3000166FFFF7E5FF1466556657671667F0BD08
:103C4000000000D094464A4A926F9208624601D220
:103C500028E0C046F0B5464E346E756E776F366F0D
:103C600000F020F89446424A146655665767166776
:103C70006246F0BD94463E4A926F9208624601D277
:103C800054E0C046F0B53A4E346E756E776F366FBD
:103C900000F04CF89446364A146655665767166726
:103CA0006246F0BD002B24DB11D000293EDA00B5BE
:103CB000C943404200D1013100F038F8C9434042C5
:103CC00000D10131DB43524200D1013300BD002A53
:103CD000EBD1002801D1002905D00020C90FC90768
:103CE00001D1C043410800B512F086F8002200233C
:103CF00000BD00B500290ADBDB43524200D101338D
:103D000000F014F8C943404200D1013100BDC9435D
:103D1000404200D10131DB43524200D1013300F077
:103D200005F8DB43524200D1013300BD002923D105
:103D3000002B18D1002A0CD0BC460D4F38667A668D
:103D400000210023FFE7FFE7FFE77A6F386F674640
:103D50007047002801D00748010000B512F04CF868
:103D60000022002300BD02000B000020002170474C
:103D7000000000D0FFFFFFFF002B00D0BFE0130CBE
:103D800028D1002AE7D080B4114F39667A66FFE760
:103D9000FFE730B4040C7B6F396F1B0423433B6691
:103DA0007A66FFE7FFE7FFE7C04684B27B6F3D6FAF
:103DB0001B0423433B667A66FFE7FFE7C046002308
:103DC0002C042D0C7A6F386F00196941B0BC704714
:103DD000000000D0F0B594460025140E01D1120267
:103DE0000835140F01D112010435940F01D192004E
:103DF0000235D40F01D152000135D40B0134254FC7
:103E00007C66254C3C660E0C93B2FFE7FFE7FFE7AC
:103E10003C6F6643360C7703BE467343DF0B5B048F
:103E2000C01AB941130C7343DB18C91ACE08664394
:103E3000360CB64493B273431F0F1B01C01AB9412D
:103E4000130C73431F0B1B05C01AB941860D8F025B
:103E50003E436643360C092D24DB520A7243801A16
:103E60007703460A6643360C16235B1BDE40DF40B1
:103E7000BF1964466643821B704604350633010051
:103E8000D940A840C01900D30131A24206D2002374
:103E9000F0BD0000000000D0FFFFFFFF121B01304B
:103EA000F3D3F1E709277F1BFE406446A2B27243B9
:103EB000801A00D20139220C7243130C1204821AA8
:103EC00099410B007046043513370100F940A840B2
:103ED000801900D30131002B02D1A2420AD2F0BDD9
:103EE000013000D30131121BFAD2013BF8D1A242BA
:103EF00000D2F0BD013000D30131121BF7E7F0B55D
:103F00001C0C00D080E00CB400251C0A04D11B025C
:103F1000160E3343120208351C0B04D11B01160F79
:103F20003343120104359C0B04D19B00960F33439D
:103F300092000235DC0B02D192185B4101351C0066
:103F4000971864410134464F7C66464C3C660E0C23
:103F5000FFE7FFE7FFE7C0463C6F6643360C770399
:103F6000BE4697B27743C01B00D20139C01B00D2B6
:103F700001399FB27743C91BC91B170C77437E04D5
:103F8000FF0B801BB941CE086643360C0C2D33DB8A
:103F9000B644120B1F053A431B0B97B27743C01B65
:103FA00000D201399FB27743C91B170C77433E04F7
:103FB0003F0C801BB941860D8F023E436643292783
:103FC0007F1BFE400C3D7746AF40BF1930BCA2B20C
:103FD000ABB272437343801A9941220C7243130CA3
:103FE0001204801A994102000B000137001BA941FD
:103FF000F9D2781E0021F0BD0C277F1BFE407746CA
:104000007F0BAF40FF19E0E700245D1C07D0144F81
:104010007D663966FFE7FFE7FFE7FFE73C6F95B294
:104020009EB265436643401BB141150C1E0C6543AF
:10403000664336042F0C3E432D04401BB141994288
:1040400004D202000B0020000021F0BD01D19042FB
:10405000F7D3801A994101349942F2D3F6E7000070
:10406000000000D0FFFFFFFF48404140484018B427
:10407000134B5B68019308BD18B4114B1B68019387
:1040800008BD94460F4A926F920805D2624618B452
:104090000B4BDB68019308BD0A4AF0B5146E556EF0
:1040A000576F166F6246FFF7F2FF064A14665566B1
:1040B00057671667F0BD18B4014B9B68019308BDA4
:1040C00014190020000000D0FFB55040424050407D
:1040D00059404B40594000E0FFB5154F4C00640D6E
:1040E00003D0BC4204D10C0314D80020090D0905EB
:1040F0005C00640D03D0BC4204D11C030AD800222A
:104100001B0D1B0501264B4009D44B4003D58B42A8
:1041100000D18242FFBD9942FCD19042FFBD0B43CA
:10412000DB1803431343F5D0C9434918FFBD000012
:10413000FF07000000B5FFF7CFFF804100BDC0467C
:1041400000B5FFF7C9FF01D9002000BD012000BD67
:1041500000B5FFF7B9FF01D9002000BD012000BD67
:1041600000B5FFF7B1FF804100BD012040054A00C6
:10417000121804D85A00121801D8002070470120E4
:1041800070470020704700000021002805D17047CB
:10419000C1174840401AFAD0C90713B5064B1B682F
:1041A00098470CBC441CA2401005120B0349091B84
:1041B00009051943114310BDB01800201F04000069
:1041C00010B54C00620D8023D218DB00D21A5B05BB
:1041D0007E2A10DD9E3A13DACC17090349081943E9
:1041E0005242D140640001341532202A05DAD04011
:1041F0000843604310BD002010BD0846604310BD59
:10420000C80FC018013810BD18B4024B5B6A019387
:1042100008BD00001419002010B50148FEF730F960
:10422000D8620110132370B51D78012D15D010DD53
:104230002648FFF793FC264C01008022200000F066
:10424000D9F8022D06D02348FFF780FC224B1860D6
:1042500070BD1F4C214BA364F5E72E001C4C204A77
:10426000A3085B421E401D422DD033002260202057
:10427000B1006118801B0A604A608A60CA600A61E6
:104280004A618A61CA610A624A628A62CA620A63D0
:104290004A638A63CA630A644A648A64CA640A65B0
:1042A0004A658A65CA650A664A668A66CA660A6790
:1042B0004A674008102802D18A67CA67CAE71E33D6
:1042C0009B00E250C6E70023D1E7C04653440000FC
:1042D000141900204C330000B0180020E5420010F3
:1042E0001942001007B5604601880A0A0230DF2A29
:1042F000FAD1C9B2820804D302884088000410436E
:1043000000E00068014A5050039007BD14190020D6
:1043100051434343C9188C46110C83B24B4310B42C
:10432000040C614392B280B2504362431C041B0CE4
:10433000001910BC59411304120CC01851416144BA
:104340007047000010B50148FEF79AF8785F011039
:10435000132310B510481C78FFF700FC0100012C56
:104360000AD003DD80220D4800F044F80C48FFF726
:10437000EDFB0C4B186010BD084C5422200000F0DF
:1043800039F82300084A80332168002900D12260CF
:104390000434A342F8D1E9E753460000141A002080
:1043A0004C330000B01800204543001010B50C003D
:1043B00011F022F8002804D0034B04199C4200D8C5
:1043C00010BD0248FEF75CF800000420F062011006
:1043D00010B511F055F810BD01480421014B1847E4
:1043E000200600206D3B0010014B1B6818470000A1
:1043F00020060020014B5B681847000020060020C3
:10440000030010B508001B681100984710BDC04696
:10441000F8B54746CE4680B5437D07000D0016002F
:10442000002B37D000240020002A1EDD4B1E9846AA
:104430001B4B9946002C2BD043461B5D0D3B5A422B
:104440005341DBB22A5D0A2A13D00134A642F1DCC3
:10445000864203DD311A3B6828189847AD19013DA3
:104460002B780D3B5A4253413B750CBC9046994604
:10447000F8BD002BE9D1A04203DA211A3B682818C5
:104480009847484602213B68013498472000DDE701
:104490003B7DD7E70368110028009847E5E7C04651
:1044A00064630110F0B5C6460C000968060000B54B
:1044B000802906D04B1C23606418267104BC9046EA
:1044C000F0BD0F4B1D68002D16D0231D98460D4FD3
:1044D00002E02D69002D0FD02B68002BF9D03B682E
:1044E000002B01D0AB42F4D1280041462268FFF7EF
:1044F0008FFF2D69002DEFD101230021DBE7C0469E
:104500002C18002030180020F0B5DE4657464E46E5
:104510004546E0B585B017001C0006000D00FDF70C
:10452000E5F90023324A12184B41002B5BDB31497D
:1045300008008A4611F088FC01906B1C03D1300002
:1045400011F084FA0500002C28D12B4B98462B4BF8
:104550001C68002C15D0002F23D1294F02E02469BC
:10456000002C0ED02368002BF9D03B68002B01D023
:10457000A342F4D120002A003100C0472469002C56
:10458000F0D1019B002B2AD1681E8541E8B205B00D
:104590003CBC90469946A246AB46F0BD194B9846A6
:1045A000D5E7174B994602ABDF1D0A239B4602E075
:1045B0002469002CE5D02368002BF9D04B461B68FA
:1045C000002B01D0A342F3D12A0031002000C047C4
:1045D0005B460122390020003B70C047E8E75046A7
:1045E00011F002FCD0E70122074B52429FE7C04680
:1045F00040420F00E00E0020114400102C18002053
:104600003018002001440010FFFFFF7FF0B5CE46B8
:10461000474680B583B06B460500DE1D3070FDF760
:1046200065F900231A4A12184B41002B2CDB19495B
:104630000800884611F008FC174B07001C68002C86
:1046400016D0164B994602E02469002C10D023683E
:10465000002BF9D04B461B68002B01D0A342F3D1AD
:10466000200001223100FFF7D3FE2469002CEED197
:10467000002F05D1280003B00CBC90469946F0BD30
:10468000404611F0B1FBF5E70122054B5242CEE75F
:1046900040420F00E00E00202C18002030180020AF
:1046A000FFFFFF7F70B5040011F0D0F90023010077
:1046B000050001222000FFF727FF084B1C68002C93
:1046C00006D06368002B05D098472469002CF8D1E8
:1046D000280070BD2469002CF3D1F9E72C180020C4
:1046E0000A4A1368002B05D10CE01A001B6910322E
:1046F000002B07D09842F8D1002902D1036913603A
:10470000016170470029FCD01060FAE72C180020E6
:10471000F0B5CE46474680B5A5B004000D00FDF7C4
:10472000E5F800232A4A12184B41002B49DB294E99
:10473000300011F089FB00230700039322002B00B7
:10474000254803A9FFF7CCF9039B8046002B14D121
:10475000224B1C68002C06D06368002B0BD09847B6
:104760002469002CF8D1002F27D1404625B00CBC7D
:1047700090469946F0BD2469ECE7184B1D689946B0
:10478000002D22D0164C02E02D69002D11D02B688F
:10479000002BF9D02368002B01D09D42F4D1039B5C
:1047A00028001A0004A90193FFF732FE2D69002D9D
:1047B000EDD14B4603951C68CCE7300011F014FB9B
:1047C000D3E70122074B5242B1E70395CBE7C0463E
:1047D00040420F00E00E0020A54400102C180020DD
:1047E00030180020FFFFFF7F0FB400B583B004A98D
:1047F00001C90191FFF78CFF03B008BC04B0184752
:1048000010B500F0C5F8012010BDC046F0B50D1E72
:1048100015DD0E4B0D271A680D4B4519D31859425B
:104820004B410C495B005E5E20210478A64207D014
:1048300093691942FCD101301460A842F5D1F0BD52
:1048400093691942FCD11760F2E7C046E4180020D2
:104850000080FCBF1019002030B50500002926DDBE
:10486000002010241B4B013D1A6893691C4219D18A
:10487000013093691C42FCD113682B548142F4D15E
:10488000154B1B68002B0CD050239363516B183BC6
:1048900034320B401100802252010A431360002879
:1048A00015D030BD0C4B1B68002BEDD1F7E70A4B40
:1048B0001B68002B0BD050223821064B1B689A63D3
:1048C0005A6B343311408022520113431960032084
:1048D0004042E6E7E4180020F4120020064B10B531
:1048E0001B68002B06D00021044A12689163044A19
:1048F0001068984710BDC046F4120020E41800204C
:10490000F81200201D4BF0B51A68C64698461C4B9D
:104910000E00D31859424B411A4F14331C000500A6
:1049200000B53B68002807D0002B11D0164B3D6026
:104930001E6004BC9046F0BD002BF7D090630021B0
:104940002000FCF719F920001049FCF741FAEDE7C7
:1049500020000E49FCF732F901212000FCF70CF988
:104960004346502238211B689A635A6B34331140F6
:104970008022520113431960D8E7C046E418002092
:104980000080FCBFF4120020F8120020DD48001067
:1049900010B50C4B0C4C1B780C4B02211B780C4BAC
:1049A00000202360FBF764FF02210120FBF760FF7A
:1049B000E12120684902FDF785FA01210548FFF74A
:1049C0008FFE10BD54F90410E418002058F90410AB
:1049D000004003403006002010B506F0C9FC10BDB1
:1049E0000123F0B50B7283B0040006F0F5FC05005E
:1049F000431C0DD11249134B1A685B680092019356
:104A00008A60CB60236820005B69984703B0F0BDE3
:104A1000FCF76CFFFA2206000F000023280000219B
:104A20009200FFF775FC36184F41002F03DB044955
:104A30008E60CF60E6E70126034F7642F7E7C04677
:104A40005806002048600110FFFFFF7F70B5094D38
:104A500004002B78002B08D00123074920000B729B
:104A60002368DB699847012070BD00F0D5FB012366
:104A70002B70F1E7041900204806002010B504004F
:104A8000036804499B699847236820001B6A024910
:104A9000984710BD580600204806002000207047A7
:104AA0007047C04610B5FCF721FF002905D0FA2257
:104AB00000239200FFF7DEF810BDFA218900FFF70E
:104AC0009BF8F9E7020083680832002B04D107E065
:104AD0001A001B68002B03D09942F9D1002003E093
:104AE0000023012011600B607047C0468368002BD3
:104AF00008D0994202D107E0994207D01A001B68FA
:104B0000002BF9D100207047020008320B68012009
:104B10001360F8E74368021D002B04D107E01A0078
:104B20001B68002B03D09942F9D1002003E0002339
:104B3000012011600B6070474368002B08D0994238
:104B400002D107E0994206D01A001B68002BF9D168
:104B500000207047021D0B6801201360F9E7C04672
:104B6000F8B54746CE468368804680B5002B27D0EF
:104B7000082343449946FCF7B9FE0B004146896877
:104B80000200002956D0CC4600208C68CD68160063
:104B90001F00361BAF41002F02DB22002B006046B6
:104BA0008C4609680029F0D1002843D001680B68C1
:104BB00003604B684046984743469B68002BDAD118
:104BC00043465C68002C31D00025237A002B29D085
:104BD000210063682572404698472468002CF4D170
:104BE000174B1868596843469E68002E04D112E09E
:104BF00020002900002E0ED0330002009C68DD68E2
:104C00000B00121BAB413668002BF1DCF2D1002AFD
:104C1000EED1002EF0D14346186159610CBC90468C
:104C20009946F8BD2468002CCFD1D9E7044B186809
:104C30005968F0E743465C68002CC5D1D0E7C04610
:104C4000486001100F4A104B10B512184B419900E3
:104C5000900F0843990F504059400C4A0C4BFFF7F6
:104C600057FB4A01C30E1343CA0E58405140094B2B
:104C7000094AFFF74DFB4A00C30F1343CA0F5840C0
:104C8000514010BD157C4A7FB979379EB9E5E41CC7
:104C90006D4758BFBB49D094EB113113F0B5046890
:104CA00045684F464646D64623002A008146C0B591
:104CB00008680E00496803430A43134304D1FCF714
:104CC00015FE03000B43FAD02A06230A604027068C
:104CD00013432A0A69403A43070CB8460F04BC46FE
:104CE0004B409A464746634642401F4303045A409E
:104CF0004B461A6052467A4013004A465360C20E31
:104D00004B014001C90E1343014333607160AB0096
:104D1000A10F0B43A200A4185D41EB01620E1A43E0
:104D2000E4016B0E23431E0017005B0FD100F0005F
:104D30001943801979411CBC90469946A246F0BDA2
:104D4000F0B5DE4657464E464546E0B5AF4B8DB012
:104D50001B78002B00D1DDE0AD4BAE4D9846AE4B3D
:104D6000AE4F02930AAB08AC059310223900200025
:104D7000FFF740FBAA4B1B78DBB20493FCF7B6FDB0
:104D8000FFF760FF089B5840636808905940A54BA7
:104D900061609B69DB0431D5A34BDA6BE0231340E0
:104DA000402B2BD0EFF305830093A04BA2469B46EC
:104DB0002C686E68009B20003100002B1BD0FCF794
:104DC0009FFDEFF3108972B65B461B68002BFBD08A
:104DD000BFF35F8F2B68A34213D0BFF35F8F002216
:104DE0005B461A6089F310882C686E68009B20006F
:104DF0003100002BE3D1FCF763FCE2E7FDF758FB41
:104E0000D0E76B68B342E8D10126864B5446D86997
:104E10000640FCF76BFD0A22002380185941002947
:104E200000DA71E043461A685B6892185B412860BB
:104E30006960110030001A00434608430091019256
:104E400018605A60BFF35F8F0025784A156089F3B8
:104E500010880199FFF7F6FE754AA36894465840FA
:104E6000E368A0605940029B724A1B78E160DB0056
:104E70006344986890424BD00021FFF7E3FE089B03
:104E800018406368089019406160EFF3108572B6AE
:104E9000664A1368002BFCD0BFF35F8F604B049A07
:104EA0001B7893420FD0089B3A68534008937A6866
:104EB000636853406360BA68A3685340A360FA68AC
:104EC000E3685340E36020000599FFF7E7FE1022F6
:104ED00080460E0038002100FFF78CFA504B504AF4
:104EE0001B780133DBB21370BFF35F8F00224F4B8F
:104EF0001A6085F31088404631000DB03CBC9046E6
:104F00009946A246AB46F0BD01204B49404289E795
:104F10009D60B1E7494B984618685968484B9C46D4
:104F2000484B9946830E8F011F438601030C0D04E5
:104F30001D4332003B00040412196B41121A8B41CD
:104F4000614601C98C4600210090019100980199A9
:104F500080185941CC45E5D1434618605960FFF7A8
:104F600071FE089B08AC584063680890594006A839
:104F7000616000F029F906980799FFF763FEA368BE
:104F80005840E368A0605940264BE1609B69DB0410
:104F900038D5254BDA6BE0231340402B32D0EFF3AA
:104FA0000583984640230093204B002600279A460D
:104FB000A146184D4346029603976C682F6821005E
:104FC0003800002B1BD0FCF79BFCEFF3108B72B664
:104FD00053461B68002BFBD0BFF35F8F2B68BB428F
:104FE00032D0BFF35F8F002253461A608BF31088D4
:104FF00043462F686C6838002100002BE3D1FCF792
:105000005FFBE2E7FDF754FAC9E7C0460A19002042
:10501000180F002068100020FF180020080F002043
:10502000001900200000064000800040300100D040
:1050300000000340FFFFFF00FFFFFF7F000F002085
:10504000001C0420002004206B68A342C9D1029EEA
:10505000039F300039004D4B80197941DA690123F3
:10506000134003431E000F000024FCF73FFC0A23FB
:10507000C0186141002940DB009B28606960012B5A
:1050800043D1434B4C4698461E605F60BFF35F8F31
:10509000404B994600234A4613608BF3108830003A
:1050A0003900FFF7CFFD089B5840636808905940CE
:1050B0006160FCF71BFCFFF7C5FDA3685840E3687F
:1050C000A0605940E160EFF3108A72B64B461A684F
:1050D000002AFCD0BFF35F8F2F4B1B78002B1FD013
:1050E0002E4B2F4F02930AAB0593BFF35F8F002225
:1050F000284B1A608AF3108837E601202949009B63
:10510000404228606960012BBBD0BFF35F8F002352
:10511000524613608BF31088009B013B009349E7D4
:10512000214BDA681F2A2AD05A691F2A24D0DA694B
:105130001F2A1FD05B6A1F2B24D0FDF7B9F9FF2669
:10514000FF23164AF6001370184B02929C46052363
:10515000664473600AAB190020000593FFF79EFDBB
:105160000F4F102221003800FFF744F901230A4AAB
:105170001370BAE702230093009EF3B2E1E7002325
:105180000093F9E71C3B0093F6E7C0460000064099
:10519000180F0020300100D00A190020FF1800204D
:1051A000080F0020FFFFFF7F0000034008000340BE
:1051B00010B5FFF7C5FD10BD10B5024800F00CF8A2
:1051C00010BDC046A418002010B508220149FFF701
:1051D00011F910BDA418002030B5002589B00400D5
:1051E0000922002101A80095FFF7FEF809220021FD
:1051F00005A80495FFF7F8F84B236A466846137034
:1052000004A90D2210F0E8FD1521082220006944B0
:10521000FFF7F0F809B030BD10B501F0F3FB00F076
:105220002BFB00F0DFFC00F08BFD06F0E9F801F04D
:1052300079FC00F05FF906F053F810BD40BA80B277
:105240007047C04600BA7047F8B54746CE4680B5AD
:10525000070104003818000110308146404D414ECE
:105260002B688846B144002B02D02A7AA24258D03B
:10527000EB68002B02D02A7DA2424BD0AB69002BF9
:1052800003D02022AA5CA2423DD06B6A002B03D03F
:105290002C22AA5CA2422FD03B191B01F318DB7B06
:1052A000002C04D0B27A022A41D0012C06D08D22E3
:1052B0005200B25C022A43D0022C05D02A4AB25CCA
:1052C000022A43D0032C03D0284AB25C022A42D0DF
:1052D000032B0DD8264D9B00585906F07BFB00226E
:1052E0003C1924013619F37B9B005A510423F373B4
:1052F0000CBC90469946F8BD41464846AA6A984774
:1053000000236B62C8E741464846EA699847002394
:10531000AB61BAE7414648462A6998470023EB60EB
:10532000ACE748466A68984700232B60A0E7F27B09
:105330009A42BAD104233F193F01F619F373D7E714
:105340002022FF32B25C9A42B6D1F3E7094AB25C3E
:105350009A42B7D1EEE7084AB25C9A42B8D1E9E77F
:10536000B4130020EC1300202A0200003A030000CE
:10537000A41300202F0200003F030000F0B5DE461A
:105380004E46574645468346E0B5030187B0534A2B
:1053900001935B441B01D618F27A012A00D99AE0E6
:1053A0004F4992008C58002C00D183E010331D002F
:1053B0004A4B9C466544280010F048FBA02212305E
:1053C00081B29200362000F0CBFE8146002800D149
:1053D0007EE003AC0C2200212000FFF705F83089A5
:1053E000FFF72CFF01232080A3700C22FF33210044
:1053F0004846A38001F076F93A4B0C269A464F4670
:10540000013D6B1C98466B78002445462E2B06D137
:105410005BE06B7801340135E4B22E2B01D0002B18
:10542000F7D14246AA1A92B223009146F318534587
:1054300045DC22003100380001F008FA731C4146B7
:105440009BB234194A46380001F088F9A1B22B7892
:105450004E1CB6B2002BD4D10C0000223100380013
:1054600001F0F4F9204B02340422029302A9A3B202
:10547000380001F073F9194A019B944618495B44BE
:105480001B0163448C46DA7ADB7B18499B0092004F
:10549000585862443523390006F026FA04003800D3
:1054A00000F0C0FF200007B03CBC90469946A246E1
:1054B000AB46F0BD0021FFF7C7FEB472F2E7062449
:1054C000380000F0AFFF6442ECE700239946ADE7F7
:1054D00001246442E6E70648FCF7D2FFEC13002003
:1054E000E4130020FEFF000000010001A4130020CF
:1054F000A86301107047C04682B0012801D902B0EC
:1055000070478000002903D00A68044BC250F6E7B8
:10551000034A024B12680192C250F0E7E4130020E4
:10552000507E0110F0B546464F46D646464BC0B5B4
:10553000464E8D273400002598467F00A37A022B23
:1055400035D02CD8002B1FD0414B9946414B9A4661
:10555000FFF72EFEB37A80B2022B40D0F35D022B10
:1055600043D04B46F35C022B48D05346F35C022BEE
:105570004DD002230122A37200232081E372280070
:1055800022736373FFF7FAFE01351134EDB2FF3475
:10559000042DD3D11CBC90469946A246F0BD032BE6
:1055A0004ED12368002B13D10023A372ECE7237B99
:1055B000013BDBB22373002BE6D1637B0133DBB20B
:1055C0006373042B29D023732800FFF7D7FEDBE792
:1055D000013B2360002BD7D10023A372D4E733898A
:1055E0008342B5D0F35D022BBBD11733FF33F35A9F
:1055F0008342ADD04B46F35C022BB6D18A239B008D
:10560000F35A8342A4D05346F35C022BB1D1CE238C
:105610009B00F35A8342ACD19AE7E37A002B08D17E
:1056200042465268002A04D001226373E272227358
:10563000CAE700212800FFF707FE0023A372A3E7B3
:105640000548FCF71DFFC046E4130020EC130020C2
:105650002A0200003A030000DC630110F0B583B0B9
:105660006B469C1D0023238001331E000640184218
:1056700005D0002903DD037801396370013003226E
:1056800013000340104205D00023012938DD0388B0
:105690000239023007294BDD083907220F009743F2
:1056A000020005000832BF182A689A189A429B41E6
:1056B0005B42D2186B680835D3189342924152422C
:1056C0009B18AF42F0D1CA08551CD200ED00891AD0
:1056D0001A044019120C1B0C9B18012910DD0288BA
:1056E0009B188A1E012A05DD45885B19052901DD05
:1056F00081885B1851084D1C6D0049004019511AF2
:10570000012901D1027822702288D318180C1B04B9
:105710001B0CC318180C1B041B0CC018002E04D043
:10572000030600041B0C000E184380B203B0F0BD4A
:105730001A00D0E7F0B54F464646D646C0B51C68BD
:10574000089B16001A68050013041B0C120C9B180A
:105750002204120C240C9B18E3181C0C1B041B0CB9
:10576000E3181C0C1B041B0C0F00E418002826D0A7
:105770000023984601339946FE339A466989686842
:10578000FFF76CFF4A460019040C6B890004000CFB
:1057900024181A4208D043465340524698462306DE
:1057A000240A1B0C14401C432D68002DE6D14346EF
:1057B000002B04D0230624041B0C240E1C43B8B277
:1057C000FFF73CFD05003000FFF738FD2D182C19C0
:1057D000200C2404240C0419200C2404240C00198B
:1057E000C04380B21CBC90469946A246F0BDC0465C
:1057F00010B582B0049C0094FFF79CFF02B010BD6E
:1058000010B5FFF72BFFC04380B210BDF0B5C64600
:10581000040000B500282AD0FF2300260027012518
:10582000984661896068FFF719FFC019070C638902
:105830000004000C3F181D4207D042463B06380AC0
:105840001B0C104003431F006E402468002CE8D15D
:10585000002E09D03B0638041B0C000E1843C04331
:1058600080B204BC9046F0BDF84380B2F9E701482D
:10587000F7E7C046FFFF000003220A4B0021033375
:105880009343094A09481360FA22120119719918C1
:10589000016001201A60087105499950054A13609A
:1058A0007047C0462C1B0020881800208C18002050
:1058B000A00FA00F4C180020F0B5D6464F46464624
:1058C000C0B500285FD0830700D068E00300384AE5
:1058D000083B12689A425FD836490C300968814209
:1058E0005AD31879002860D0FA201D88000185421B
:1058F0000CD85C88A246844208D8981A80B28046A8
:105900001619A04205D03088404502D02A48FCF73D
:10591000B7FD5019814202D044884445F6D1002495
:105920001C71264CA44624689C4202D9644623601C
:105930001C00994236D9834213D00779002F10D129
:1059400081420ED0A04223D005881D800188FA2014
:105950000001814205D040465118488059888A4646
:105960005618B3420FD0317900290CD1A34201D18E
:1059700061460E60FA2135801B8809018B4202D0F6
:10598000D218534653801CBC90469946A246F0BD9F
:1059900061461C000B60D7E70948FCF771FD094818
:1059A000FCF76EFD0848FCF76BFD0848FCF768FD46
:1059B000881800208C180020646401104C18002006
:1059C00020640110FC630110986401103C64011014
:1059D000F0B5C646364BCA1C00B513400B2B3FD959
:1059E000FA22120193423ED899423CD8314A1468B7
:1059F000844253D8304A126882424FD90500083D8C
:105A0000291B8AB290462E8841463200083A521A23
:105A100092B29A4245D320D0A7193979002924D1CE
:105A2000FA22120196423FD03A88244E94464246CA
:105A300008329B1832689BB2BA422CD0E21800267A
:105A400061461671118041465180FA212B801288DF
:105A500009018A4201D0A418638004BC9046F0BDBD
:105A60000C239942C2D90020F7E71F001437974250
:105A7000F3D8424608329B18FA229BB21201964292
:105A800012D00E4FE2183968914200D93A600027CF
:105A900016801771D7E7E2183260D0E70848FCF7A4
:105AA000EFFC0848FCF7ECFC0748FCF7E9FCC046B3
:105AB000FCFF0000881800208C1800204C180020E3
:105AC000B4640110CC640110EC640110F0B5D6464A
:105AD0004F464646C0B500282FD03B4CC31C1C4047
